{
	"data": {
		"bytecode": {
			"linkReferences": {},
			"object": "6080604052607b60655534801561001557600080fd5b50610df1806100256000396000f3fe608060405234801561001057600080fd5b50600436106100885760003560e01c80638da5cb5b1161005b5780638da5cb5b146100ef578063cd41a3e71461010d578063cd4fe8cd1461013d578063f2fde38b1461015957610088565b80634bfae52a1461008d5780634e678e80146100ab578063715018a6146100db5780638129fc1c146100e5575b600080fd5b610095610175565b6040516100a291906109e5565b60405180910390f35b6100c560048036038101906100c0919061075c565b61017f565b6040516100d291906109e5565b60405180910390f35b6100e36101a7565b005b6100ed6101bb565b005b6100f7610301565b604051610104919061092f565b60405180910390f35b61012760048036038101906101229190610801565b61032b565b60405161013491906109e5565b60405180910390f35b610157600480360381019061015291906107a5565b610374565b005b610173600480360381019061016e919061072f565b6103f0565b005b6000606554905090565b60006066826040516101919190610918565b9081526020016040518091039020549050919050565b6101af610474565b6101b960006104f2565b565b60008060019054906101000a900460ff161590508080156101ec5750600160008054906101000a900460ff1660ff16105b8061021957506101fb306105b8565b1580156102185750600160008054906101000a900460ff1660ff16145b5b610258576040517f08c379a000000000000000000000000000000000000000000000000000000000815260040161024f90610985565b60405180910390fd5b60016000806101000a81548160ff021916908360ff1602179055508015610295576001600060016101000a81548160ff0219169083151502179055505b61029d6105db565b6102a561062c565b80156102fe5760008060016101000a81548160ff0219169083151502179055507f7f26b83ff96e1f2b6a682f133852f6798a09c465da95921460cefb384740249860016040516102f5919061094a565b60405180910390a15b50565b6000603360009054906101000a900473ffffffffffffffffffffffffffffffffffffffff16905090565b60006003600a4261033c9190610b94565b14156103535781606581905550612b67905061036f565b6065600081548092919061036690610b4b565b91905055508190505b919050565b61037c610474565b8060668360405161038d9190610918565b908152602001604051809103902081905550816040516103ad9190610918565b60405180910390207ffb95a454fb88a8138042f1b612100fff4b0a6159ea05e9b136eb293075809edf826040516103e491906109e5565b60405180910390a25050565b6103f8610474565b600073ffffffffffffffffffffffffffffffffffffffff168173ffffffffffffffffffffffffffffffffffffffff161415610468576040517f08c379a000000000000000000000000000000000000000000000000000000000815260040161045f90610965565b60405180910390fd5b610471816104f2565b50565b61047c61068d565b73ffffffffffffffffffffffffffffffffffffffff1661049a610301565b73ffffffffffffffffffffffffffffffffffffffff16146104f0576040517f08c379a00000000000000000000000000000000000000000000000000000000081526004016104e7906109a5565b60405180910390fd5b565b6000603360009054906101000a900473ffffffffffffffffffffffffffffffffffffffff16905081603360006101000a81548173ffffffffffffffffffffffffffffffffffffffff021916908373ffffffffffffffffffffffffffffffffffffffff1602179055508173ffffffffffffffffffffffffffffffffffffffff168173ffffffffffffffffffffffffffffffffffffffff167f8be0079c531659141344cd1fd0a4f28419497f9722a3daafe3b4186f6b6457e060405160405180910390a35050565b6000808273ffffffffffffffffffffffffffffffffffffffff163b119050919050565b600060019054906101000a900460ff1661062a576040517f08c379a0000000000000000000000000000000000000000000000000000000008152600401610621906109c5565b60405180910390fd5b565b600060019054906101000a900460ff1661067b576040517f08c379a0000000000000000000000000000000000000000000000000000000008152600401610672906109c5565b60405180910390fd5b61068b61068661068d565b6104f2565b565b600033905090565b60006106a86106a384610a25565b610a00565b9050828152602081018484840111156106c4576106c3610c57565b5b6106cf848285610ad8565b509392505050565b6000813590506106e681610d8d565b92915050565b600082601f83011261070157610700610c52565b5b8135610711848260208601610695565b91505092915050565b60008135905061072981610da4565b92915050565b60006020828403121561074557610744610c61565b5b6000610753848285016106d7565b91505092915050565b60006020828403121561077257610771610c61565b5b600082013567ffffffffffffffff8111156107905761078f610c5c565b5b61079c848285016106ec565b91505092915050565b600080604083850312156107bc576107bb610c61565b5b600083013567ffffffffffffffff8111156107da576107d9610c5c565b5b6107e6858286016106ec565b92505060206107f78582860161071a565b9150509250929050565b60006020828403121561081757610816610c61565b5b60006108258482850161071a565b91505092915050565b61083781610a7d565b82525050565b61084681610ac6565b82525050565b600061085782610a56565b6108618185610a72565b9350610871818560208601610ae7565b80840191505092915050565b600061088a602683610a61565b915061089582610c77565b604082019050919050565b60006108ad602e83610a61565b91506108b882610cc6565b604082019050919050565b60006108d0602083610a61565b91506108db82610d15565b602082019050919050565b60006108f3602b83610a61565b91506108fe82610d3e565b604082019050919050565b61091281610aaf565b82525050565b6000610924828461084c565b915081905092915050565b6000602082019050610944600083018461082e565b92915050565b600060208201905061095f600083018461083d565b92915050565b6000602082019050818103600083015261097e8161087d565b9050919050565b6000602082019050818103600083015261099e816108a0565b9050919050565b600060208201905081810360008301526109be816108c3565b9050919050565b600060208201905081810360008301526109de816108e6565b9050919050565b60006020820190506109fa6000830184610909565b92915050565b6000610a0a610a1b565b9050610a168282610b1a565b919050565b6000604051905090565b600067ffffffffffffffff821115610a4057610a3f610c23565b5b610a4982610c66565b9050602081019050919050565b600081519050919050565b600082825260208201905092915050565b600081905092915050565b6000610a8882610a8f565b9050919050565b600073ffffffffffffffffffffffffffffffffffffffff82169050919050565b6000819050919050565b600060ff82169050919050565b6000610ad182610ab9565b9050919050565b82818337600083830152505050565b60005b83811015610b05578082015181840152602081019050610aea565b83811115610b14576000848401525b50505050565b610b2382610c66565b810181811067ffffffffffffffff82111715610b4257610b41610c23565b5b80604052505050565b6000610b5682610aaf565b91507fffffffffffffffffffffffffffffffffffffffffffffffffffffffffffffffff821415610b8957610b88610bc5565b5b600182019050919050565b6000610b9f82610aaf565b9150610baa83610aaf565b925082610bba57610bb9610bf4565b5b828206905092915050565b7f4e487b7100000000000000000000000000000000000000000000000000000000600052601160045260246000fd5b7f4e487b7100000000000000000000000000000000000000000000000000000000600052601260045260246000fd5b7f4e487b7100000000000000000000000000000000000000000000000000000000600052604160045260246000fd5b600080fd5b600080fd5b600080fd5b600080fd5b6000601f19601f8301169050919050565b7f4f776e61626c653a206e6577206f776e657220697320746865207a65726f206160008201527f6464726573730000000000000000000000000000000000000000000000000000602082015250565b7f496e697469616c697a61626c653a20636f6e747261637420697320616c72656160008201527f647920696e697469616c697a6564000000000000000000000000000000000000602082015250565b7f4f776e61626c653a2063616c6c6572206973206e6f7420746865206f776e6572600082015250565b7f496e697469616c697a61626c653a20636f6e7472616374206973206e6f74206960008201527f6e697469616c697a696e67000000000000000000000000000000000000000000602082015250565b610d9681610a7d565b8114610da157600080fd5b50565b610dad81610aaf565b8114610db857600080fd5b5056fea2646970667358221220ad1778b1be87a453090b32637f54d78a0b54b0b0f6fcaeefb21e5cc7fb7f4e4764736f6c63430008060033",
			"opcodes": "PUSH1 0x80 PUSH1 0x40 MSTORE PUSH1 0x7B PUSH1 0x65 SSTORE CALLVALUE DUP1 ISZERO PUSH2 0x15 JUMPI PUSH1 0x0 DUP1 REVERT JUMPDEST POP PUSH2 0xDF1 DUP1 PUSH2 0x25 PUSH1 0x0 CODECOPY PUSH1 0x0 RETURN INVALID PUSH1 0x80 PUSH1 0x40 MSTORE CALLVALUE DUP1 ISZERO PUSH2 0x10 JUMPI PUSH1 0x0 DUP1 REVERT JUMPDEST POP PUSH1 0x4 CALLDATASIZE LT PUSH2 0x88 JUMPI PUSH1 0x0 CALLDATALOAD PUSH1 0xE0 SHR DUP1 PUSH4 0x8DA5CB5B GT PUSH2 0x5B JUMPI DUP1 PUSH4 0x8DA5CB5B EQ PUSH2 0xEF JUMPI DUP1 PUSH4 0xCD41A3E7 EQ PUSH2 0x10D JUMPI DUP1 PUSH4 0xCD4FE8CD EQ PUSH2 0x13D JUMPI DUP1 PUSH4 0xF2FDE38B EQ PUSH2 0x159 JUMPI PUSH2 0x88 JUMP JUMPDEST DUP1 PUSH4 0x4BFAE52A EQ PUSH2 0x8D JUMPI DUP1 PUSH4 0x4E678E80 EQ PUSH2 0xAB JUMPI DUP1 PUSH4 0x715018A6 EQ PUSH2 0xDB JUMPI DUP1 PUSH4 0x8129FC1C EQ PUSH2 0xE5 JUMPI JUMPDEST PUSH1 0x0 DUP1 REVERT JUMPDEST PUSH2 0x95 PUSH2 0x175 JUMP JUMPDEST PUSH1 0x40 MLOAD PUSH2 0xA2 SWAP2 SWAP1 PUSH2 0x9E5 JUMP JUMPDEST PUSH1 0x40 MLOAD DUP1 SWAP2 SUB SWAP1 RETURN JUMPDEST PUSH2 0xC5 PUSH1 0x4 DUP1 CALLDATASIZE SUB DUP2 ADD SWAP1 PUSH2 0xC0 SWAP2 SWAP1 PUSH2 0x75C JUMP JUMPDEST PUSH2 0x17F JUMP JUMPDEST PUSH1 0x40 MLOAD PUSH2 0xD2 SWAP2 SWAP1 PUSH2 0x9E5 JUMP JUMPDEST PUSH1 0x40 MLOAD DUP1 SWAP2 SUB SWAP1 RETURN JUMPDEST PUSH2 0xE3 PUSH2 0x1A7 JUMP JUMPDEST STOP JUMPDEST PUSH2 0xED PUSH2 0x1BB JUMP JUMPDEST STOP JUMPDEST PUSH2 0xF7 PUSH2 0x301 JUMP JUMPDEST PUSH1 0x40 MLOAD PUSH2 0x104 SWAP2 SWAP1 PUSH2 0x92F JUMP JUMPDEST PUSH1 0x40 MLOAD DUP1 SWAP2 SUB SWAP1 RETURN JUMPDEST PUSH2 0x127 PUSH1 0x4 DUP1 CALLDATASIZE SUB DUP2 ADD SWAP1 PUSH2 0x122 SWAP2 SWAP1 PUSH2 0x801 JUMP JUMPDEST PUSH2 0x32B JUMP JUMPDEST PUSH1 0x40 MLOAD PUSH2 0x134 SWAP2 SWAP1 PUSH2 0x9E5 JUMP JUMPDEST PUSH1 0x40 MLOAD DUP1 SWAP2 SUB SWAP1 RETURN JUMPDEST PUSH2 0x157 PUSH1 0x4 DUP1 CALLDATASIZE SUB DUP2 ADD SWAP1 PUSH2 0x152 SWAP2 SWAP1 PUSH2 0x7A5 JUMP JUMPDEST PUSH2 0x374 JUMP JUMPDEST STOP JUMPDEST PUSH2 0x173 PUSH1 0x4 DUP1 CALLDATASIZE SUB DUP2 ADD SWAP1 PUSH2 0x16E SWAP2 SWAP1 PUSH2 0x72F JUMP JUMPDEST PUSH2 0x3F0 JUMP JUMPDEST STOP JUMPDEST PUSH1 0x0 PUSH1 0x65 SLOAD SWAP1 POP SWAP1 JUMP JUMPDEST PUSH1 0x0 PUSH1 0x66 DUP3 PUSH1 0x40 MLOAD PUSH2 0x191 SWAP2 SWAP1 PUSH2 0x918 JUMP JUMPDEST SWAP1 DUP2 MSTORE PUSH1 0x20 ADD PUSH1 0x40 MLOAD DUP1 SWAP2 SUB SWAP1 KECCAK256 SLOAD SWAP1 POP SWAP2 SWAP1 POP JUMP JUMPDEST PUSH2 0x1AF PUSH2 0x474 JUMP JUMPDEST PUSH2 0x1B9 PUSH1 0x0 PUSH2 0x4F2 JUMP JUMPDEST JUMP JUMPDEST PUSH1 0x0 DUP1 PUSH1 0x1 SWAP1 SLOAD SWAP1 PUSH2 0x100 EXP SWAP1 DIV PUSH1 0xFF AND ISZERO SWAP1 POP DUP1 DUP1 ISZERO PUSH2 0x1EC JUMPI POP PUSH1 0x1 PUSH1 0x0 DUP1 SLOAD SWAP1 PUSH2 0x100 EXP SWAP1 DIV PUSH1 0xFF AND PUSH1 0xFF AND LT JUMPDEST DUP1 PUSH2 0x219 JUMPI POP PUSH2 0x1FB ADDRESS PUSH2 0x5B8 JUMP JUMPDEST ISZERO DUP1 ISZERO PUSH2 0x218 JUMPI POP PUSH1 0x1 PUSH1 0x0 DUP1 SLOAD SWAP1 PUSH2 0x100 EXP SWAP1 DIV PUSH1 0xFF AND PUSH1 0xFF AND EQ JUMPDEST JUMPDEST PUSH2 0x258 JUMPI PUSH1 0x40 MLOAD PUSH32 0x8C379A000000000000000000000000000000000000000000000000000000000 DUP2 MSTORE PUSH1 0x4 ADD PUSH2 0x24F SWAP1 PUSH2 0x985 JUMP JUMPDEST PUSH1 0x40 MLOAD DUP1 SWAP2 SUB SWAP1 REVERT JUMPDEST PUSH1 0x1 PUSH1 0x0 DUP1 PUSH2 0x100 EXP DUP2 SLOAD DUP2 PUSH1 0xFF MUL NOT AND SWAP1 DUP4 PUSH1 0xFF AND MUL OR SWAP1 SSTORE POP DUP1 ISZERO PUSH2 0x295 JUMPI PUSH1 0x1 PUSH1 0x0 PUSH1 0x1 PUSH2 0x100 EXP DUP2 SLOAD DUP2 PUSH1 0xFF MUL NOT AND SWAP1 DUP4 ISZERO ISZERO MUL OR SWAP1 SSTORE POP JUMPDEST PUSH2 0x29D PUSH2 0x5DB JUMP JUMPDEST PUSH2 0x2A5 PUSH2 0x62C JUMP JUMPDEST DUP1 ISZERO PUSH2 0x2FE JUMPI PUSH1 0x0 DUP1 PUSH1 0x1 PUSH2 0x100 EXP DUP2 SLOAD DUP2 PUSH1 0xFF MUL NOT AND SWAP1 DUP4 ISZERO ISZERO MUL OR SWAP1 SSTORE POP PUSH32 0x7F26B83FF96E1F2B6A682F133852F6798A09C465DA95921460CEFB3847402498 PUSH1 0x1 PUSH1 0x40 MLOAD PUSH2 0x2F5 SWAP2 SWAP1 PUSH2 0x94A JUMP JUMPDEST PUSH1 0x40 MLOAD DUP1 SWAP2 SUB SWAP1 LOG1 JUMPDEST POP JUMP JUMPDEST PUSH1 0x0 PUSH1 0x33 PUSH1 0x0 SWAP1 SLOAD SWAP1 PUSH2 0x100 EXP SWAP1 DIV PUSH20 0xFFFFFFFFFFFFFFFFFFFFFFFFFFFFFFFFFFFFFFFF AND SWAP1 POP SWAP1 JUMP JUMPDEST PUSH1 0x0 PUSH1 0x3 PUSH1 0xA TIMESTAMP PUSH2 0x33C SWAP2 SWAP1 PUSH2 0xB94 JUMP JUMPDEST EQ ISZERO PUSH2 0x353 JUMPI DUP2 PUSH1 0x65 DUP2 SWAP1 SSTORE POP PUSH2 0x2B67 SWAP1 POP PUSH2 0x36F JUMP JUMPDEST PUSH1 0x65 PUSH1 0x0 DUP2 SLOAD DUP1 SWAP3 SWAP2 SWAP1 PUSH2 0x366 SWAP1 PUSH2 0xB4B JUMP JUMPDEST SWAP2 SWAP1 POP SSTORE POP DUP2 SWAP1 POP JUMPDEST SWAP2 SWAP1 POP JUMP JUMPDEST PUSH2 0x37C PUSH2 0x474 JUMP JUMPDEST DUP1 PUSH1 0x66 DUP4 PUSH1 0x40 MLOAD PUSH2 0x38D SWAP2 SWAP1 PUSH2 0x918 JUMP JUMPDEST SWAP1 DUP2 MSTORE PUSH1 0x20 ADD PUSH1 0x40 MLOAD DUP1 SWAP2 SUB SWAP1 KECCAK256 DUP2 SWAP1 SSTORE POP DUP2 PUSH1 0x40 MLOAD PUSH2 0x3AD SWAP2 SWAP1 PUSH2 0x918 JUMP JUMPDEST PUSH1 0x40 MLOAD DUP1 SWAP2 SUB SWAP1 KECCAK256 PUSH32 0xFB95A454FB88A8138042F1B612100FFF4B0A6159EA05E9B136EB293075809EDF DUP3 PUSH1 0x40 MLOAD PUSH2 0x3E4 SWAP2 SWAP1 PUSH2 0x9E5 JUMP JUMPDEST PUSH1 0x40 MLOAD DUP1 SWAP2 SUB SWAP1 LOG2 POP POP JUMP JUMPDEST PUSH2 0x3F8 PUSH2 0x474 JUMP JUMPDEST PUSH1 0x0 PUSH20 0xFFFFFFFFFFFFFFFFFFFFFFFFFFFFFFFFFFFFFFFF AND DUP2 PUSH20 0xFFFFFFFFFFFFFFFFFFFFFFFFFFFFFFFFFFFFFFFF AND EQ ISZERO PUSH2 0x468 JUMPI PUSH1 0x40 MLOAD PUSH32 0x8C379A000000000000000000000000000000000000000000000000000000000 DUP2 MSTORE PUSH1 0x4 ADD PUSH2 0x45F SWAP1 PUSH2 0x965 JUMP JUMPDEST PUSH1 0x40 MLOAD DUP1 SWAP2 SUB SWAP1 REVERT JUMPDEST PUSH2 0x471 DUP2 PUSH2 0x4F2 JUMP JUMPDEST POP JUMP JUMPDEST PUSH2 0x47C PUSH2 0x68D JUMP JUMPDEST PUSH20 0xFFFFFFFFFFFFFFFFFFFFFFFFFFFFFFFFFFFFFFFF AND PUSH2 0x49A PUSH2 0x301 JUMP JUMPDEST PUSH20 0xFFFFFFFFFFFFFFFFFFFFFFFFFFFFFFFFFFFFFFFF AND EQ PUSH2 0x4F0 JUMPI PUSH1 0x40 MLOAD PUSH32 0x8C379A000000000000000000000000000000000000000000000000000000000 DUP2 MSTORE PUSH1 0x4 ADD PUSH2 0x4E7 SWAP1 PUSH2 0x9A5 JUMP JUMPDEST PUSH1 0x40 MLOAD DUP1 SWAP2 SUB SWAP1 REVERT JUMPDEST JUMP JUMPDEST PUSH1 0x0 PUSH1 0x33 PUSH1 0x0 SWAP1 SLOAD SWAP1 PUSH2 0x100 EXP SWAP1 DIV PUSH20 0xFFFFFFFFFFFFFFFFFFFFFFFFFFFFFFFFFFFFFFFF AND SWAP1 POP DUP2 PUSH1 0x33 PUSH1 0x0 PUSH2 0x100 EXP DUP2 SLOAD DUP2 PUSH20 0xFFFFFFFFFFFFFFFFFFFFFFFFFFFFFFFFFFFFFFFF MUL NOT AND SWAP1 DUP4 PUSH20 0xFFFFFFFFFFFFFFFFFFFFFFFFFFFFFFFFFFFFFFFF AND MUL OR SWAP1 SSTORE POP DUP2 PUSH20 0xFFFFFFFFFFFFFFFFFFFFFFFFFFFFFFFFFFFFFFFF AND DUP2 PUSH20 0xFFFFFFFFFFFFFFFFFFFFFFFFFFFFFFFFFFFFFFFF AND PUSH32 0x8BE0079C531659141344CD1FD0A4F28419497F9722A3DAAFE3B4186F6B6457E0 PUSH1 0x40 MLOAD PUSH1 0x40 MLOAD DUP1 SWAP2 SUB SWAP1 LOG3 POP POP JUMP JUMPDEST PUSH1 0x0 DUP1 DUP3 PUSH20 0xFFFFFFFFFFFFFFFFFFFFFFFFFFFFFFFFFFFFFFFF AND EXTCODESIZE GT SWAP1 POP SWAP2 SWAP1 POP JUMP JUMPDEST PUSH1 0x0 PUSH1 0x1 SWAP1 SLOAD SWAP1 PUSH2 0x100 EXP SWAP1 DIV PUSH1 0xFF AND PUSH2 0x62A JUMPI PUSH1 0x40 MLOAD PUSH32 0x8C379A000000000000000000000000000000000000000000000000000000000 DUP2 MSTORE PUSH1 0x4 ADD PUSH2 0x621 SWAP1 PUSH2 0x9C5 JUMP JUMPDEST PUSH1 0x40 MLOAD DUP1 SWAP2 SUB SWAP1 REVERT JUMPDEST JUMP JUMPDEST PUSH1 0x0 PUSH1 0x1 SWAP1 SLOAD SWAP1 PUSH2 0x100 EXP SWAP1 DIV PUSH1 0xFF AND PUSH2 0x67B JUMPI PUSH1 0x40 MLOAD PUSH32 0x8C379A000000000000000000000000000000000000000000000000000000000 DUP2 MSTORE PUSH1 0x4 ADD PUSH2 0x672 SWAP1 PUSH2 0x9C5 JUMP JUMPDEST PUSH1 0x40 MLOAD DUP1 SWAP2 SUB SWAP1 REVERT JUMPDEST PUSH2 0x68B PUSH2 0x686 PUSH2 0x68D JUMP JUMPDEST PUSH2 0x4F2 JUMP JUMPDEST JUMP JUMPDEST PUSH1 0x0 CALLER SWAP1 POP SWAP1 JUMP JUMPDEST PUSH1 0x0 PUSH2 0x6A8 PUSH2 0x6A3 DUP5 PUSH2 0xA25 JUMP JUMPDEST PUSH2 0xA00 JUMP JUMPDEST SWAP1 POP DUP3 DUP2 MSTORE PUSH1 0x20 DUP2 ADD DUP5 DUP5 DUP5 ADD GT ISZERO PUSH2 0x6C4 JUMPI PUSH2 0x6C3 PUSH2 0xC57 JUMP JUMPDEST JUMPDEST PUSH2 0x6CF DUP5 DUP3 DUP6 PUSH2 0xAD8 JUMP JUMPDEST POP SWAP4 SWAP3 POP POP POP JUMP JUMPDEST PUSH1 0x0 DUP2 CALLDATALOAD SWAP1 POP PUSH2 0x6E6 DUP2 PUSH2 0xD8D JUMP JUMPDEST SWAP3 SWAP2 POP POP JUMP JUMPDEST PUSH1 0x0 DUP3 PUSH1 0x1F DUP4 ADD SLT PUSH2 0x701 JUMPI PUSH2 0x700 PUSH2 0xC52 JUMP JUMPDEST JUMPDEST DUP2 CALLDATALOAD PUSH2 0x711 DUP5 DUP3 PUSH1 0x20 DUP7 ADD PUSH2 0x695 JUMP JUMPDEST SWAP2 POP POP SWAP3 SWAP2 POP POP JUMP JUMPDEST PUSH1 0x0 DUP2 CALLDATALOAD SWAP1 POP PUSH2 0x729 DUP2 PUSH2 0xDA4 JUMP JUMPDEST SWAP3 SWAP2 POP POP JUMP JUMPDEST PUSH1 0x0 PUSH1 0x20 DUP3 DUP5 SUB SLT ISZERO PUSH2 0x745 JUMPI PUSH2 0x744 PUSH2 0xC61 JUMP JUMPDEST JUMPDEST PUSH1 0x0 PUSH2 0x753 DUP5 DUP3 DUP6 ADD PUSH2 0x6D7 JUMP JUMPDEST SWAP2 POP POP SWAP3 SWAP2 POP POP JUMP JUMPDEST PUSH1 0x0 PUSH1 0x20 DUP3 DUP5 SUB SLT ISZERO PUSH2 0x772 JUMPI PUSH2 0x771 PUSH2 0xC61 JUMP JUMPDEST JUMPDEST PUSH1 0x0 DUP3 ADD CALLDATALOAD PUSH8 0xFFFFFFFFFFFFFFFF DUP2 GT ISZERO PUSH2 0x790 JUMPI PUSH2 0x78F PUSH2 0xC5C JUMP JUMPDEST JUMPDEST PUSH2 0x79C DUP5 DUP3 DUP6 ADD PUSH2 0x6EC JUMP JUMPDEST SWAP2 POP POP SWAP3 SWAP2 POP POP JUMP JUMPDEST PUSH1 0x0 DUP1 PUSH1 0x40 DUP4 DUP6 SUB SLT ISZERO PUSH2 0x7BC JUMPI PUSH2 0x7BB PUSH2 0xC61 JUMP JUMPDEST JUMPDEST PUSH1 0x0 DUP4 ADD CALLDATALOAD PUSH8 0xFFFFFFFFFFFFFFFF DUP2 GT ISZERO PUSH2 0x7DA JUMPI PUSH2 0x7D9 PUSH2 0xC5C JUMP JUMPDEST JUMPDEST PUSH2 0x7E6 DUP6 DUP3 DUP7 ADD PUSH2 0x6EC JUMP JUMPDEST SWAP3 POP POP PUSH1 0x20 PUSH2 0x7F7 DUP6 DUP3 DUP7 ADD PUSH2 0x71A JUMP JUMPDEST SWAP2 POP POP SWAP3 POP SWAP3 SWAP1 POP JUMP JUMPDEST PUSH1 0x0 PUSH1 0x20 DUP3 DUP5 SUB SLT ISZERO PUSH2 0x817 JUMPI PUSH2 0x816 PUSH2 0xC61 JUMP JUMPDEST JUMPDEST PUSH1 0x0 PUSH2 0x825 DUP5 DUP3 DUP6 ADD PUSH2 0x71A JUMP JUMPDEST SWAP2 POP POP SWAP3 SWAP2 POP POP JUMP JUMPDEST PUSH2 0x837 DUP2 PUSH2 0xA7D JUMP JUMPDEST DUP3 MSTORE POP POP JUMP JUMPDEST PUSH2 0x846 DUP2 PUSH2 0xAC6 JUMP JUMPDEST DUP3 MSTORE POP POP JUMP JUMPDEST PUSH1 0x0 PUSH2 0x857 DUP3 PUSH2 0xA56 JUMP JUMPDEST PUSH2 0x861 DUP2 DUP6 PUSH2 0xA72 JUMP JUMPDEST SWAP4 POP PUSH2 0x871 DUP2 DUP6 PUSH1 0x20 DUP7 ADD PUSH2 0xAE7 JUMP JUMPDEST DUP1 DUP5 ADD SWAP2 POP POP SWAP3 SWAP2 POP POP JUMP JUMPDEST PUSH1 0x0 PUSH2 0x88A PUSH1 0x26 DUP4 PUSH2 0xA61 JUMP JUMPDEST SWAP2 POP PUSH2 0x895 DUP3 PUSH2 0xC77 JUMP JUMPDEST PUSH1 0x40 DUP3 ADD SWAP1 POP SWAP2 SWAP1 POP JUMP JUMPDEST PUSH1 0x0 PUSH2 0x8AD PUSH1 0x2E DUP4 PUSH2 0xA61 JUMP JUMPDEST SWAP2 POP PUSH2 0x8B8 DUP3 PUSH2 0xCC6 JUMP JUMPDEST PUSH1 0x40 DUP3 ADD SWAP1 POP SWAP2 SWAP1 POP JUMP JUMPDEST PUSH1 0x0 PUSH2 0x8D0 PUSH1 0x20 DUP4 PUSH2 0xA61 JUMP JUMPDEST SWAP2 POP PUSH2 0x8DB DUP3 PUSH2 0xD15 JUMP JUMPDEST PUSH1 0x20 DUP3 ADD SWAP1 POP SWAP2 SWAP1 POP JUMP JUMPDEST PUSH1 0x0 PUSH2 0x8F3 PUSH1 0x2B DUP4 PUSH2 0xA61 JUMP JUMPDEST SWAP2 POP PUSH2 0x8FE DUP3 PUSH2 0xD3E JUMP JUMPDEST PUSH1 0x40 DUP3 ADD SWAP1 POP SWAP2 SWAP1 POP JUMP JUMPDEST PUSH2 0x912 DUP2 PUSH2 0xAAF JUMP JUMPDEST DUP3 MSTORE POP POP JUMP JUMPDEST PUSH1 0x0 PUSH2 0x924 DUP3 DUP5 PUSH2 0x84C JUMP JUMPDEST SWAP2 POP DUP2 SWAP1 POP SWAP3 SWAP2 POP POP JUMP JUMPDEST PUSH1 0x0 PUSH1 0x20 DUP3 ADD SWAP1 POP PUSH2 0x944 PUSH1 0x0 DUP4 ADD DUP5 PUSH2 0x82E JUMP JUMPDEST SWAP3 SWAP2 POP POP JUMP JUMPDEST PUSH1 0x0 PUSH1 0x20 DUP3 ADD SWAP1 POP PUSH2 0x95F PUSH1 0x0 DUP4 ADD DUP5 PUSH2 0x83D JUMP JUMPDEST SWAP3 SWAP2 POP POP JUMP JUMPDEST PUSH1 0x0 PUSH1 0x20 DUP3 ADD SWAP1 POP DUP2 DUP2 SUB PUSH1 0x0 DUP4 ADD MSTORE PUSH2 0x97E DUP2 PUSH2 0x87D JUMP JUMPDEST SWAP1 POP SWAP2 SWAP1 POP JUMP JUMPDEST PUSH1 0x0 PUSH1 0x20 DUP3 ADD SWAP1 POP DUP2 DUP2 SUB PUSH1 0x0 DUP4 ADD MSTORE PUSH2 0x99E DUP2 PUSH2 0x8A0 JUMP JUMPDEST SWAP1 POP SWAP2 SWAP1 POP JUMP JUMPDEST PUSH1 0x0 PUSH1 0x20 DUP3 ADD SWAP1 POP DUP2 DUP2 SUB PUSH1 0x0 DUP4 ADD MSTORE PUSH2 0x9BE DUP2 PUSH2 0x8C3 JUMP JUMPDEST SWAP1 POP SWAP2 SWAP1 POP JUMP JUMPDEST PUSH1 0x0 PUSH1 0x20 DUP3 ADD SWAP1 POP DUP2 DUP2 SUB PUSH1 0x0 DUP4 ADD MSTORE PUSH2 0x9DE DUP2 PUSH2 0x8E6 JUMP JUMPDEST SWAP1 POP SWAP2 SWAP1 POP JUMP JUMPDEST PUSH1 0x0 PUSH1 0x20 DUP3 ADD SWAP1 POP PUSH2 0x9FA PUSH1 0x0 DUP4 ADD DUP5 PUSH2 0x909 JUMP JUMPDEST SWAP3 SWAP2 POP POP JUMP JUMPDEST PUSH1 0x0 PUSH2 0xA0A PUSH2 0xA1B JUMP JUMPDEST SWAP1 POP PUSH2 0xA16 DUP3 DUP3 PUSH2 0xB1A JUMP JUMPDEST SWAP2 SWAP1 POP JUMP JUMPDEST PUSH1 0x0 PUSH1 0x40 MLOAD SWAP1 POP SWAP1 JUMP JUMPDEST PUSH1 0x0 PUSH8 0xFFFFFFFFFFFFFFFF DUP3 GT ISZERO PUSH2 0xA40 JUMPI PUSH2 0xA3F PUSH2 0xC23 JUMP JUMPDEST JUMPDEST PUSH2 0xA49 DUP3 PUSH2 0xC66 JUMP JUMPDEST SWAP1 POP PUSH1 0x20 DUP2 ADD SWAP1 POP SWAP2 SWAP1 POP JUMP JUMPDEST PUSH1 0x0 DUP2 MLOAD SWAP1 POP SWAP2 SWAP1 POP JUMP JUMPDEST PUSH1 0x0 DUP3 DUP3 MSTORE PUSH1 0x20 DUP3 ADD SWAP1 POP SWAP3 SWAP2 POP POP JUMP JUMPDEST PUSH1 0x0 DUP2 SWAP1 POP SWAP3 SWAP2 POP POP JUMP JUMPDEST PUSH1 0x0 PUSH2 0xA88 DUP3 PUSH2 0xA8F JUMP JUMPDEST SWAP1 POP SWAP2 SWAP1 POP JUMP JUMPDEST PUSH1 0x0 PUSH20 0xFFFFFFFFFFFFFFFFFFFFFFFFFFFFFFFFFFFFFFFF DUP3 AND SWAP1 POP SWAP2 SWAP1 POP JUMP JUMPDEST PUSH1 0x0 DUP2 SWAP1 POP SWAP2 SWAP1 POP JUMP JUMPDEST PUSH1 0x0 PUSH1 0xFF DUP3 AND SWAP1 POP SWAP2 SWAP1 POP JUMP JUMPDEST PUSH1 0x0 PUSH2 0xAD1 DUP3 PUSH2 0xAB9 JUMP JUMPDEST SWAP1 POP SWAP2 SWAP1 POP JUMP JUMPDEST DUP3 DUP2 DUP4 CALLDATACOPY PUSH1 0x0 DUP4 DUP4 ADD MSTORE POP POP POP JUMP JUMPDEST PUSH1 0x0 JUMPDEST DUP4 DUP2 LT ISZERO PUSH2 0xB05 JUMPI DUP1 DUP3 ADD MLOAD DUP2 DUP5 ADD MSTORE PUSH1 0x20 DUP2 ADD SWAP1 POP PUSH2 0xAEA JUMP JUMPDEST DUP4 DUP2 GT ISZERO PUSH2 0xB14 JUMPI PUSH1 0x0 DUP5 DUP5 ADD MSTORE JUMPDEST POP POP POP POP JUMP JUMPDEST PUSH2 0xB23 DUP3 PUSH2 0xC66 JUMP JUMPDEST DUP2 ADD DUP2 DUP2 LT PUSH8 0xFFFFFFFFFFFFFFFF DUP3 GT OR ISZERO PUSH2 0xB42 JUMPI PUSH2 0xB41 PUSH2 0xC23 JUMP JUMPDEST JUMPDEST DUP1 PUSH1 0x40 MSTORE POP POP POP JUMP JUMPDEST PUSH1 0x0 PUSH2 0xB56 DUP3 PUSH2 0xAAF JUMP JUMPDEST SWAP2 POP PUSH32 0xFFFFFFFFFFFFFFFFFFFFFFFFFFFFFFFFFFFFFFFFFFFFFFFFFFFFFFFFFFFFFFFF DUP3 EQ ISZERO PUSH2 0xB89 JUMPI PUSH2 0xB88 PUSH2 0xBC5 JUMP JUMPDEST JUMPDEST PUSH1 0x1 DUP3 ADD SWAP1 POP SWAP2 SWAP1 POP JUMP JUMPDEST PUSH1 0x0 PUSH2 0xB9F DUP3 PUSH2 0xAAF JUMP JUMPDEST SWAP2 POP PUSH2 0xBAA DUP4 PUSH2 0xAAF JUMP JUMPDEST SWAP3 POP DUP3 PUSH2 0xBBA JUMPI PUSH2 0xBB9 PUSH2 0xBF4 JUMP JUMPDEST JUMPDEST DUP3 DUP3 MOD SWAP1 POP SWAP3 SWAP2 POP POP JUMP JUMPDEST PUSH32 0x4E487B7100000000000000000000000000000000000000000000000000000000 PUSH1 0x0 MSTORE PUSH1 0x11 PUSH1 0x4 MSTORE PUSH1 0x24 PUSH1 0x0 REVERT JUMPDEST PUSH32 0x4E487B7100000000000000000000000000000000000000000000000000000000 PUSH1 0x0 MSTORE PUSH1 0x12 PUSH1 0x4 MSTORE PUSH1 0x24 PUSH1 0x0 REVERT JUMPDEST PUSH32 0x4E487B7100000000000000000000000000000000000000000000000000000000 PUSH1 0x0 MSTORE PUSH1 0x41 PUSH1 0x4 MSTORE PUSH1 0x24 PUSH1 0x0 REVERT JUMPDEST PUSH1 0x0 DUP1 REVERT JUMPDEST PUSH1 0x0 DUP1 REVERT JUMPDEST PUSH1 0x0 DUP1 REVERT JUMPDEST PUSH1 0x0 DUP1 REVERT JUMPDEST PUSH1 0x0 PUSH1 0x1F NOT PUSH1 0x1F DUP4 ADD AND SWAP1 POP SWAP2 SWAP1 POP JUMP JUMPDEST PUSH32 0x4F776E61626C653A206E6577206F776E657220697320746865207A65726F2061 PUSH1 0x0 DUP3 ADD MSTORE PUSH32 0x6464726573730000000000000000000000000000000000000000000000000000 PUSH1 0x20 DUP3 ADD MSTORE POP JUMP JUMPDEST PUSH32 0x496E697469616C697A61626C653A20636F6E747261637420697320616C726561 PUSH1 0x0 DUP3 ADD MSTORE PUSH32 0x647920696E697469616C697A6564000000000000000000000000000000000000 PUSH1 0x20 DUP3 ADD MSTORE POP JUMP JUMPDEST PUSH32 0x4F776E61626C653A2063616C6C6572206973206E6F7420746865206F776E6572 PUSH1 0x0 DUP3 ADD MSTORE POP JUMP JUMPDEST PUSH32 0x496E697469616C697A61626C653A20636F6E7472616374206973206E6F742069 PUSH1 0x0 DUP3 ADD MSTORE PUSH32 0x6E697469616C697A696E67000000000000000000000000000000000000000000 PUSH1 0x20 DUP3 ADD MSTORE POP JUMP JUMPDEST PUSH2 0xD96 DUP2 PUSH2 0xA7D JUMP JUMPDEST DUP2 EQ PUSH2 0xDA1 JUMPI PUSH1 0x0 DUP1 REVERT JUMPDEST POP JUMP JUMPDEST PUSH2 0xDAD DUP2 PUSH2 0xAAF JUMP JUMPDEST DUP2 EQ PUSH2 0xDB8 JUMPI PUSH1 0x0 DUP1 REVERT JUMPDEST POP JUMP INVALID LOG2 PUSH5 0x6970667358 0x22 SLT KECCAK256 0xAD OR PUSH25 0xB1BE87A453090B32637F54D78A0B54B0B0F6FCAEEFB21E5CC7 0xFB PUSH32 0x4E4764736F6C6343000806003300000000000000000000000000000000000000 "
		},
		"gasEstimates": {
			"creation": {
				"codeDepositCost": "713800",
				"executionCost": "22853",
				"totalCost": "736653"
			},
			"external": {
				"GetA()": "2438",
				"GetUint256Param(string)": "infinite",
				"SetUint256Param(string,uint256)": "infinite",
				"Timestamp(uint256)": "infinite",
				"initialize()": "116108",
				"owner()": "2522",
				"renounceOwnership()": "30443",
				"transferOwnership(address)": "30813"
			}
		},
		"methodIdentifiers": {
			"GetA()": "4bfae52a",
			"GetUint256Param(string)": "4e678e80",
			"SetUint256Param(string,uint256)": "cd4fe8cd",
			"Timestamp(uint256)": "cd41a3e7",
			"initialize()": "8129fc1c",
			"owner()": "8da5cb5b",
			"renounceOwnership()": "715018a6",
			"transferOwnership(address)": "f2fde38b"
		}
	},
	"abi": [
		{
			"anonymous": false,
			"inputs": [
				{
					"indexed": false,
					"internalType": "uint8",
					"name": "version",
					"type": "uint8"
				}
			],
			"name": "Initialized",
			"type": "event"
		},
		{
			"anonymous": false,
			"inputs": [
				{
					"indexed": true,
					"internalType": "address",
					"name": "previousOwner",
					"type": "address"
				},
				{
					"indexed": true,
					"internalType": "address",
					"name": "newOwner",
					"type": "address"
				}
			],
			"name": "OwnershipTransferred",
			"type": "event"
		},
		{
			"anonymous": false,
			"inputs": [
				{
					"indexed": true,
					"internalType": "string",
					"name": "_key",
					"type": "string"
				},
				{
					"indexed": false,
					"internalType": "uint256",
					"name": "_value",
					"type": "uint256"
				}
			],
			"name": "Uint256ParamSetted",
			"type": "event"
		},
		{
			"inputs": [],
			"name": "GetA",
			"outputs": [
				{
					"internalType": "uint256",
					"name": "",
					"type": "uint256"
				}
			],
			"stateMutability": "view",
			"type": "function"
		},
		{
			"inputs": [
				{
					"internalType": "string",
					"name": "_key",
					"type": "string"
				}
			],
			"name": "GetUint256Param",
			"outputs": [
				{
					"internalType": "uint256",
					"name": "",
					"type": "uint256"
				}
			],
			"stateMutability": "view",
			"type": "function"
		},
		{
			"inputs": [
				{
					"internalType": "string",
					"name": "_key",
					"type": "string"
				},
				{
					"internalType": "uint256",
					"name": "_value",
					"type": "uint256"
				}
			],
			"name": "SetUint256Param",
			"outputs": [],
			"stateMutability": "nonpayable",
			"type": "function"
		},
		{
			"inputs": [
				{
					"internalType": "uint256",
					"name": "_value",
					"type": "uint256"
				}
			],
			"name": "Timestamp",
			"outputs": [
				{
					"internalType": "uint256",
					"name": "",
					"type": "uint256"
				}
			],
			"stateMutability": "nonpayable",
			"type": "function"
		},
		{
			"inputs": [],
			"name": "initialize",
			"outputs": [],
			"stateMutability": "nonpayable",
			"type": "function"
		},
		{
			"inputs": [],
			"name": "owner",
			"outputs": [
				{
					"internalType": "address",
					"name": "",
					"type": "address"
				}
			],
			"stateMutability": "view",
			"type": "function"
		},
		{
			"inputs": [],
			"name": "renounceOwnership",
			"outputs": [],
			"stateMutability": "nonpayable",
			"type": "function"
		},
		{
			"inputs": [
				{
					"internalType": "address",
					"name": "newOwner",
					"type": "address"
				}
			],
			"name": "transferOwnership",
			"outputs": [],
			"stateMutability": "nonpayable",
			"type": "function"
		}
	]
}